:100000000C9457000C949E010C9474000C94740092
:100010000C9474000C9474000C9474000C94740090
:100020000C9474000C9474000C9474000C94740080
:100030000C9474000C9474000C9474000C94740070
:100040000C9474000C9474000C9474000C94740060
:100050000C9474000C9474000C9474000C94740050
:100060000C9474000C9474000403090412034800F7
:10007000410043004B0049005400550050000C0360
:1000800050004900550049004F0012011001FF00C7
:1000900000084705021000010102000109021200D8
:1000A000010100803209040000000000000011245A
:1000B0001FBECFEFD8E0DEBFCDBF11E0A0E0B1E0C2
:1000C000E8E6F6E002C005900D92A230B107D9F73C
:1000D00011E0A2E0B1E001C01D92A134B107E1F747
:1000E0000E9408030C9432030C9400001F93CF93DA
:1000F000DF9360912701635067FDA1C080912401C7
:10010000CCE0D0E0C81BD109C55DDE4F8091230152
:100110008D3209F081C0683009F08FC083EC809384
:1001200017018AE580930001109202018881807690
:1001300039F0CE010E94D8028F3F09F45CC062C042
:100140009A81109220018981882331F41092210133
:1001500020E231E082E04AC0853019F49093280112
:100160003BC0863081F58B81813019F48AE890E0BC
:1001700015C0823019F48CE990E010C08330F1F49E
:10018000992341F488E690E090932601809325011D
:1001900084E015C0913041F48CE690E09093260104
:1001A0008093250182E10BC0923041F48EE790E00C
:1001B00090932601809325018CE001C080E090E4BB
:1001C000909302011FC0883059F0893019F4909340
:1001D0002A0102C08A3039F020E231E080E006C016
:1001E0002AE231E002C020E231E081E030932601D2
:1001F0002093250107C0988197FD8E8190E8909308
:10020000020107C09F81992321F49E81981708F469
:10021000892F8093010111C08091020187FF0DC0D9
:10022000CE010E94B2028F3F21F48EE18093000143
:1002300004C0882311F010920101109227018091CF
:10024000000184FF4DC0809101018F3F09F448C037
:10025000182F893008F018E0811B809301018091EC
:10026000170198E8892780931701112361F1809184
:1002700025019091260130910201212F215036FF56
:100280000EC030E0A901475E5E4FFC01A8E1B1E07D
:1002900064916D933196A417B507D1F70CC0DC01BA
:1002A00030E0A901475E5E4FE8E1F1E06D916193B6
:1002B000E417F507D9F72F5F3F4F280F391F309309
:1002C00026012093250188E191E0612F0E949A0187
:1002D0001C5F1C3019F08FEF809301011093000117
:1002E00084E199B1937031F48150D9F710922801CB
:1002F00010922201DF91CF911F910895E9E6F0E07D
:10030000808182608083E89A0895A82FB92F80E0C9
:1003100090E041E050EA609530E009C02D918227DD
:100320009795879510F084279527305EC8F36F5F07
:10033000A8F30895EADF8D939D930895CF93CFB7E7
:10034000CF93DF93C395489BE9F7489B0BC0489B2D
:1003500009C0489B07C0489B05C0489B03C0489BF9
:1003600001C089C06F93C0912401DD27C55DDE4FB8
:100370002F9365E5489B03C02F916F91E6CF0F93B4
:100380001F934F9320E040E15F9309B1037000FB9E
:1003900027F93F9350E03BE039C0137040642F775A
:1003A000012F5F5F1EC0406819B113702F77525044
:1003B0001FC0406409B12F770370D1F15F5F00C0A7
:1003C00023C0406219B12F77137091F15F5F00C0B5
:1003D00025C003701027515012F45D5F00001150CA
:1003E00027952C3F19B1C8F61370012701502795A6
:1003F0002C3FC8F64227499309B1037010274F7369
:10040000115027952C3FA8F64695469519B11370C3
:1004100079F00127015027952C3F98F66B5A60F32D
:10042000315009B1B0F600C011E01CBB002717C065
:100430003B503195C31BD04011E01CBB0881033CED
:10044000F9F00B34E9F0209122011981110F1213F8
:10045000EDCF093651F10D3211F0013E39F700931D
:1004600029013F915F914F911F910F912F916F91B2
:10047000CCB3C0FD67CFDF91CF91CFBFCF9118959F
:1004800020912901222369F310912701112339F5C5
:1004900034303AF130932701209323011091240145
:1004A0003BE0311B309324011CC000912701013037
:1004B000B4F40AE53091000134FD14C0009300014A
:1004C000C7E1D1E013C0052710E000C000000BB960
:1004D0001AC0052710E0221F1DC010E021C04AE508
:1004E00002C032ED432FC4E1D0E032E01AB1136014
:1004F000589A0BB11AB953E020E865E320FF0527AD
:100500000BB9279517951C3FF0F66695B8F7B1F72C
:1005100020FF05270BB9279517951C3FD0F6279587
:10052000179517FF052700001C3F0BB9B0F629915E
:100530003A9519F70C7F10912801110FC651D04040
:100540000BB911F01093220111E01CBB01601AB12C
:100550001C7F402F4C7F54E05A95F1F70BB91AB924
:100560004BB97FCF282FFC01A0910601A83078F06D
:10057000A093060190910501A91316C080910F0167
:100580008093030180911101809304010DC091E0DB
:100590009A0F8E2F821B861758F78191B0E0A15FCA
:1005A000BE4F8C93A92FE2CF81E0A91380E008957C
:1005B000FC0181818E3AA1F48081803451F0803C2D
:1005C00079F487E091E0909326018093250188E0FB
:1005D0000895109206018681809305018FEF08959A
:1005E00080E0089583B183B183B183B183B18FEF8C
:1005F0008093070193B196B18093080196B196B1AB
:1006000096B196B196B18093090180930A0108953D
:100610002EE088E190E00FB6F894A89580936000F2
:100620000FBE2093600014B817B8E7E0F1E08FEF39
:10063000819391E0EF30F907D9F70E947E01509A3B
:100640008AEFA895EFE9FFE03197F1F700C00000CD
:100650008150B9F750987894A8950E9476000E942E
:08066000F202FACFF894FFCF7B
:020668005AFF37
:00000001FF
