:100000000C9457000C9496010C9474000C9474009A
:100010000C9474000C9474000C9474000C94740090
:100020000C9474000C9474000C9474000C94740080
:100030000C9474000C9474000C9474000C94740070
:100040000C9474000C9474000C9474000C94740060
:100050000C9474000C9474000C9474000C94740050
:100060000C9474000C9474000902120001010080C9
:10007000FA09040000000000000012011001FF0056
:100080000008470502100001010200010C035000A6
:100090004900550049004F00120348004100430049
:1000A0004B0049005400550050000403090411247A
:1000B0001FBECFEFD8E0DEBFCDBF11E0A0E0B1E0C2
:1000C000EAE9F6E002C005900D92A230B107D9F737
:1000D00011E0A2E0B1E001C01D92A134B107E1F747
:1000E0000E9421030C944B030C940000CF93DF93E8
:1000F00060912701635067FDA1C080912401CCE08D
:10010000D0E0C81BD109C55DDE4F809123018D323F
:1001100009F082C0683009F08FC083EC809317012A
:100120008AE580930101109202018881807639F07E
:10013000CE010E94D0028F3F09F45DC063C08A8166
:10014000109220019981911106C01092210120E2A4
:1001500031E082E04BC0953019F48093280138C01B
:10016000963081F59B81913019F48AE790E004C0C4
:10017000923041F488E690E0909326018093250127
:1001800082E11CC09330C9F4811108C08AEA90E072
:10019000909326018093250184E010C0813019F4EA
:1001A00088E990E0E9CF823041F48CE890E09093C8
:1001B0002601809325018CE001C080E090E49093BB
:1001C000020120C0983079F0993031F480932A01EF
:1001D00020E231E080E00AC081E09A3009F080E05E
:1001E00020E231E003C02AE231E081E030932601D1
:1001F0002093250107C0988197FD8E8190E8909308
:10020000020107C09F81911104C09E81981708F4D4
:10021000892F8093000110C08091020187FF0CC0DC
:10022000CE010E94AA028F3F21F48EE1809301014A
:1002300003C08111109200011092270180910101E9
:1002400084FF47C0809100018F3F09F442C0C82F4E
:10025000893008F0C8E08C1B809300018091170161
:1002600098E8892780931701CC2331F1209125014B
:10027000309126018091020186FF0BC0A8E1B1E018
:10028000F9018C2F8A0F94919D9331968A13FBCF9D
:1002900009C0D901E8E1F1E08C2F8E0F9D91919377
:1002A0008E13FCCF8FEF8C0F90E00196820F931F7F
:1002B00090932601809325016C2F88E191E00E94A4
:1002C0009201CC5FCC3019F08FEF80930001C09386
:1002D000010184E199B1937031F48150D9F7109202
:1002E000280110922201DF91CF910895E9E6F0E014
:1002F000808182608083E89A0895A82FB92F80E0DA
:1003000090E041E050EA609530E009C02D918227ED
:100310009795879510F084279527305EC8F36F5F17
:10032000A8F30895EADF8D939D930895CF93CFB7F7
:10033000CF93DF93C395489BE9F7489B0BC0489B3D
:1003400009C0489B07C0489B05C0489B03C0489B09
:1003500001C089C06F93C0912401DD27C55DDE4FC8
:100360002F9365E5489B03C02F916F91E6CF0F93C4
:100370001F934F9320E040E15F9309B1037000FBAE
:1003800027F93F9350E03BE039C0137040642F776A
:10039000012F5F5F1EC0406819B113702F77525054
:1003A0001FC0406409B12F770370D1F15F5F00C0B7
:1003B00023C0406219B12F77137091F15F5F00C0C5
:1003C00025C003701027515012F45D5F00001150DA
:1003D00027952C3F19B1C8F61370012701502795B6
:1003E0002C3FC8F64227499309B1037010274F7379
:1003F000115027952C3FA8F64695469519B11370D4
:1004000079F00127015027952C3F98F66B5A60F33D
:10041000315009B1B0F600C011E01CBB002717C075
:100420003B503195C31BD04011E01CBB0881033CFD
:10043000F9F00B34E9F0209122011981110F121308
:10044000EDCF093651F10D3211F0013E39F700932D
:1004500029013F915F914F911F910F912F916F91C2
:10046000CCB3C0FD67CFDF91CF91CFBFCF911895AF
:1004700020912901222369F310912701112339F5D5
:1004800034303AF130932701209323011091240155
:100490003BE0311B309324011CC000912701013047
:1004A000B4F40AE53091010134FD14C00093010158
:1004B000C7E1D1E013C0052710E000C000000BB970
:1004C0001AC0052710E0221F1DC010E021C04AE518
:1004D00002C032ED432FC4E1D0E032E01AB1136024
:1004E000589A0BB11AB953E020E865E320FF0527BD
:1004F0000BB9279517951C3FF0F66695B8F7B1F73D
:1005000020FF05270BB9279517951C3FD0F6279597
:10051000179517FF052700001C3F0BB9B0F629916E
:100520003A9519F70C7F10912801110FC651D04050
:100530000BB911F01093220111E01CBB01601AB13C
:100540001C7F402F4C7F54E05A95F1F70BB91AB934
:100550004BB97FCF282FFC01A0910601A83078F07D
:10056000A093060190910501A91316C080910F0177
:100570008093030180911101809304010DC091E0EB
:100580009A0F8E2F821B861758F78191B0E0A15FDA
:10059000BE4F8C93A92FE2CF81E0A91380E008958C
:1005A000FC0181818E3AA1F48081803451F0803C3D
:1005B00079F487E091E0909326018093250188E00B
:1005C0000895109206018681809305018FEF0895AA
:1005D00080E0089533B123B193B183B143B1227068
:1005E000220F9470990F990F922B3170932B887072
:1005F000880F880F880F892B80958093070183B11E
:1006000096B1807290E0880F991F809580930801C1
:1006100036B126B196B186B146B12270220F9470E0
:10062000990F990F922B3170932B8870880F880F38
:10063000880F892B8095809309018FEF80930A01A1
:1006400008952EE088E190E00FB6F894A895809385
:1006500060000FBE2093600014B817B8E7E0F1E027
:100660008FEF819391E0EF30F907D9F70E9476017F
:10067000509A8AEFA895EFE9FFE03197F1F700C0B3
:1006800000008150B9F750987894A8950E947600A0
:0A0690000E94EA02FACFF894FFCFAF
:02069A00FF5A05
:00000001FF
