:100000000C9457000C9496010C9474000C9474009A
:100010000C9474000C9474000C9474000C94740090
:100020000C9474000C9474000C9474000C94740080
:100030000C9474000C9474000C9474000C94740070
:100040000C9474000C9474000C9474000C94740060
:100050000C9474000C9474000C9474000C94740050
:100060000C9474000C9474000902120001010080C9
:10007000FA09040000000000000012011001FF0056
:100080000008470502100001010200010C035000A6
:100090004900550049004F00120348004100430049
:1000A0004B0049005400550050000403090411247A
:1000B0001FBECFEFD8E0DEBFCDBF11E0A0E0B1E0C2
:1000C000E2E3F7E002C005900D92A230B107D9F744
:1000D00011E0A2E0B1E001C01D92A134B107E1F747
:1000E0000E946D030C9497030C940000CF93DF9350
:1000F00060912701635067FDA1C080912401CCE08D
:10010000D0E0C81BD109C55DDE4F809123018D323F
:1001100009F082C0683009F08FC083EC809317012A
:100120008AE580930101109202018881807639F07E
:10013000CE010E94E9028F3F09F45DC063C08A814D
:10014000109220019981911106C01092210120E2A4
:1001500031E082E04BC0953019F48093280138C01B
:10016000963081F59B81913019F48AE790E004C0C4
:10017000923041F488E690E0909326018093250127
:1001800082E11CC09330C9F4811108C08AEA90E072
:10019000909326018093250184E010C0813019F4EA
:1001A00088E990E0E9CF823041F48CE890E09093C8
:1001B0002601809325018CE001C080E090E49093BB
:1001C000020120C0983079F0993031F480932A01EF
:1001D00020E231E080E00AC081E09A3009F080E05E
:1001E00020E231E003C02AE231E081E030932601D1
:1001F0002093250107C0988197FD8E8190E8909308
:10020000020107C09F81911104C09E81981708F4D4
:10021000892F8093000110C08091020187FF0CC0DC
:10022000CE010E94C3028F3F21F48EE18093010131
:1002300003C08111109200011092270180910101E9
:1002400084FF47C0809100018F3F09F442C0C82F4E
:10025000893008F0C8E08C1B809300018091170161
:1002600098E8892780931701CC2331F1209125014B
:10027000309126018091020186FF0BC0A8E1B1E018
:10028000F9018C2F8A0F94919D9331968A13FBCF9D
:1002900009C0D901E8E1F1E08C2F8E0F9D91919377
:1002A0008E13FCCF8FEF8C0F90E00196820F931F7F
:1002B00090932601809325016C2F88E191E00E94A4
:1002C0009201CC5FCC3019F08FEF80930001C09386
:1002D000010184E199B1937031F48150D9F7109202
:1002E000280110922201DF91CF910895E9E6F0E014
:1002F000808182608083E89A0895A82FB92F80E0DA
:1003000090E041E050EA609530E009C02D918227ED
:100310009795879510F084279527305EC8F36F5F17
:10032000A8F30895EADF8D939D930895CF93CFB7F7
:10033000CF93C395489BE9F7489B09C0489B07C0EA
:10034000489B05C0489B03C0489B01C0A1C0DF93E8
:10035000C0912401DD27C55DDE4F489B02C0DF91BF
:10036000EBCF2F930F931F9309B12FEF00FB20F9D1
:100370004F933F9319B14FEF012700FB21F93BE069
:1003800031C04E7F012F19B1216028C0102F4D7F41
:100390002260000009B129C04B7F2460012F0000BA
:1003A00019B12BC019B1477F28602AC04F7E09B10F
:1003B00020612CC04F7D19B120622FC04F7B09B145
:1003C000206432C0422709B149934FEF0000102743
:1003D00010FB20F919B11370C9F1297F91F201279F
:1003E00000FB21F909B1237F89F2315058F1102720
:1003F00010FB22F919B1277E79F2012700FB23F9BE
:100400002F7C81F209B1102710FB24F92F7971F2AA
:1004100000C019B1012700FB25F92F7359F200C064
:1004200009B1102710FB26F9223040F200C019B1A3
:10043000012700FB27F9243028F64F77206819B1EF
:100440000000F9CF11E01CBB002717C03B503195CD
:10045000C31BD04011E01CBB0881033CE9F00B3406
:10046000D9F0209122011981110F1213EDCF093615
:1004700041F10D3211F0013E39F7009329013F910E
:100480004F911F910F912F91DF91CCB3C0FD51CFB0
:10049000CF91CFBFCF91189520912901222379F3D5
:1004A00010912701112311F5343012F130932701F7
:1004B00020932301109124013BE0311B3093240150
:1004C00017C00091270101308CF40AE53091010139
:1004D00034FD10C000930101C7E1D1E00FC02795A2
:1004E000A8F45150A9F4220F0000F9CF4AE503C047
:1004F00042ED01C0432FC4E1D0E032E01AB11360F5
:10050000589A1AB90BB120E413E05F93012756E023
:100510000BB9279520F4515021F4220FF9CF012770
:1005200056E000003B5A0BB9D0F2279528F4515001
:1005300029F4220F0000F9CF012756E027950BB9C7
:1005400020F4515021F4220FF9CF012756E02991D0
:1005500033230BB921F60C7F10912801110FC651DE
:10056000D0400BB911F01093220111E01CBB0160C7
:100570001AB11C7F402F4C7F5F9100C000C00BB9A7
:100580001AB94BB97CCF282FFC01A0910601A830E5
:1005900078F0A093060190910501A91316C08091EF
:1005A0000F018093030180911101809304010DC01C
:1005B00091E09A0F8E2F821B861758F78191B0E039
:1005C000A15FBE4F8C93A92FE2CF81E0A91380E0F9
:1005D0000895FC0181818E3AA1F48081803451F02C
:1005E000803C79F487E091E0909326018093250187
:1005F00088E00895109206018681809305018FEFAF
:10060000089580E008958FEF80930701809308019B
:100610008093090180930A011B9903C087EF80939F
:10062000070180910701189B02C0816001C08E7F85
:1006300080930701809107011A9B02C0846001C06A
:100640008B7F8093070180910701199B02C0826014
:1006500001C08D7F80930701809107011C9B02C020
:10066000806101C08F7E80930701339903C087EFBB
:100670008093090180910901309B02C0816001C013
:100680008E7F8093090180910901329B02C08460B2
:1006900001C08B7F8093090180910901319B02C0C9
:1006A000826001C08D7F8093090180910901349B94
:1006B00002C0806101C08F7E80930901359903C01B
:1006C0008FEB80930801809108011D9B02C082601E
:1006D00001C08D7F8093080108952EE088E190E0AD
:1006E0000FB6F894A895809360000FBE2093600029
:1006F00014B817B8E7E0F1E08FEF819391E0EF30A5
:10070000F907D9F70E947601509A8AEFA895EFE988
:10071000FFE03197F1F700C000008150B9F7509821
:100720007894A8950E9476000E940303FACFF8946B
:02073000FFCFF9
:02073200FF5A6C
:00000001FF
